:03000000020526D0
:0C052600787FE4F6D8FD75812C02031DDF
:1004370053797374656D205265736574204F4B0D46
:100447000057726974696E6720307841420D005712
:10045700726974696E6720307843440D0052656194
:08046700646564200D000D0026
:10031D007F807E257D007C001205327BFF7A04797B
:10032D00371204F77F0A1204CF7BFF7A0479481243
:10033D0004F77DABE4FFFE1204B97F0A1204CF7BF4
:10034D00FF7A0479561204F77DCD7F017E001204E9
:10035D00B97F0A1204CF7BFF7A0479641204F7E4A3
:10036D00FFFE1204A2E4FCFDFE751D011203AA7B23
:10037D00FF7A04796D1204F77BFF7A047964120415
:10038D00F77F017E001204A2E4FCFDFE751D011233
:0D039D0003AA7BFF7A04796D1204F780FE3D
:1004CF00AE071FEE600DE4FCFD0DED70010C4C60EE
:0304DF00EF80F6B5
:0104E20022F7
:0D051900E4F5C7F5C5F5C675C380F5C4222D
:1004A20075C78175C5018FC48EC375C65A75C6A539
:0604B20000AFC2120519A3
:0104B8002221
:1004B90075C78175C5028FC48EC38DC275C65A753D
:0604C900C6A500020519A2
:1004E30075C78175C5038FC48EC375C65A75C6A5F6
:0404F30000020519E5
:0B053200438920759850D28E02046FA0
:08046F008F1C8E1B8D1A8C19E5
:10047700E47F807E01FDFCAB1CAA1BA91AA81912F8
:100487000049A804A905AA06AB077F007E807D5115
:0A0497007C011200D41201668F8D63
:0104A1002238
:08053D008F993099FDC299224B
:0E050A0030980BAF99C2988F993099FDC29925
:0105180022C0
:1004F700120003FF600C12053D740129F9E43AFA72
:0305070080EE2261
:08026B008F0B8E0A8D098C082F
:10027300E4F516751709FFFEFDFCAB0BAA0AA909E5
:10028300A808C3120174700CAF171517740C2FF85C
:1002930076308053E4FFFEFDFCAB0BAA0AA909A844
:1002A30008D31201744040E5179400403AE47B0AF6
:1002B300FAF9F8AF0BAE0AAD09AC081200D4EB247F
:1002C30030FFAE171517740C2EF8A607AF0BAE0A46
:1002D300AD09AC08E47B0AFAF9F81200D48F0B8E4F
:0E02E3000A8D098C0880ADE517C394004023F6
:1002F100E4F518C3740A9517FFE518C39F5014E578
:10030100172518240DF8E6FF740C2518F8A6070523
:030311001880E071
:090314007B007A00790C0204F769
:0803AA008F1C8E1B8D1A8C19AB
:1003B200E4F5227B03FAE51D75F002A4FFEAC39F70
:1003C200E5F06480F8748098503BEBC394004035AC
:1003D200AF1CAE1BAD1AAC19EA25E025E0F9F81204
:1003E2000185EF540FFF8F23E523C3940AE52350C1
:1003F200052430FF80032437FFAE031B741E2EF842
:02040200A6074B
:090404000A80B1EBC39400402111
:10040D00E4F523C374049BFFE523C39F5013E52339
:10041D002B241FF8E6FF741E2523F8A6070523805D
:01042D00E2EC
:09042E007B007A00791E0204F73C
:0A0198008B248A2589268C278D28E8
:1001A200E4F52AF52B752C02AB240526E526AA25B3
:1001B2007002052514F9120003F529700302026A80
:1001C200642560030202620526E526AA257002055F
:1001D2002514F9120003F529B4641285272A85280B
:1001E2002BAE2AAF2BE4FCFD12026B80BBE5296427
:1001F200787066AB24AA25A926120003FFC3648087
:1002020094B14045D3EF648094B9503DEF24D0F5CA
:100212002CAB24AA25A92690000112001CFFC3645E
:100222008094B04024D3EF648094B9501C0526E535
:100232002670020525F9AA2512000324D0FFE52C19
:1002420075F00AA42FF52C80C8AE27AF28E4FCFD78
:10025200852C1D1203AA0201AA7F2512053D8000EA
:08026200AF2912053D0201AABB
:01026A002271
:10000300BB010689828A83E0225002E722BBFE02FB
:09001300E32289828A83E493222E
:10001C00BB010CE58229F582E5833AF583E0225099
:10002C0006E92582F8E622BBFE06E92582F8E222E3
:0D003C00E58229F582E5833AF583E49322FD
:10004900E88FF0A4CC8BF0A42CFCE98EF0A42CFC56
:100059008AF0EDA42CFCEA8EF0A4CDA8F08BF0A4D4
:100069002DCC3825F0FDE98FF0A42CCD35F0FCEB33
:100079008EF0A4FEA9F0EB8FF0A4CFC5F02ECD39F8
:0F008900FEE43CFCEAA42DCE35F0FDE43CFC2265
:1000980075F008758200EF2FFFEE33FECD33CDCC1F
:1000A80033CCC58233C5829BED9AEC99E5829840A2
:1000B8000CF582EE9BFEED9AFDEC99FC0FD5F0D67F
:1000C800E4CEFBE4CDFAE4CCF9A88222B800C1B9A9
:1000D8000059BA002DEC8BF084CFCECDFCE5F0CBE7
:1000E800F97818EF2FFFEE33FEED33FDEC33FCEB20
:1000F80033FB10D703994004EB99FB0FD8E5E4F9DB
:10010800FA227818EF2FFFEE33FEED33FDEC33FCC7
:10011800C933C910D7059BE99A4007EC9BFCE99ABB
:10012800F90FD8E0E4C9FAE4CCFB2275F010EF2F00
:10013800FFEE33FEED33FDCC33CCC833C810D70700
:100148009BEC9AE899400AED9BFDEC9AFCE899F83B
:0E0158000FD5F0DAE4CDFBE4CCFAE4C8F922CE
:0E016600C3E49FFFE49EFEE49DFDE49CFC22AA
:10017400EB9FF5F0EA9E42F0E99D42F0E89C45F0E1
:010184002258
:10018500E8600FECC313FCED13FDEE13FEEF13FF58
:03019500D8F1227C
:00000001FF
